{
  "_format": "hh3-artifact-1",
  "contractName": "Auction",
  "sourceName": "contracts/Auction.sol",
  "abi": [
    {
      "inputs": [],
      "stateMutability": "nonpayable",
      "type": "constructor"
    },
    {
      "anonymous": false,
      "inputs": [
        {
          "indexed": false,
          "internalType": "uint256",
          "name": "auctionId",
          "type": "uint256"
        },
        {
          "indexed": false,
          "internalType": "string",
          "name": "name",
          "type": "string"
        },
        {
          "indexed": false,
          "internalType": "uint256",
          "name": "startingPrice",
          "type": "uint256"
        },
        {
          "indexed": false,
          "internalType": "uint256",
          "name": "endTime",
          "type": "uint256"
        }
      ],
      "name": "AuctionCreated",
      "type": "event"
    },
    {
      "anonymous": false,
      "inputs": [
        {
          "indexed": false,
          "internalType": "uint256",
          "name": "auctionId",
          "type": "uint256"
        },
        {
          "indexed": false,
          "internalType": "address",
          "name": "winner",
          "type": "address"
        },
        {
          "indexed": false,
          "internalType": "uint256",
          "name": "finalPrice",
          "type": "uint256"
        }
      ],
      "name": "AuctionEnded",
      "type": "event"
    },
    {
      "anonymous": false,
      "inputs": [
        {
          "indexed": false,
          "internalType": "uint256",
          "name": "auctionId",
          "type": "uint256"
        },
        {
          "indexed": false,
          "internalType": "address",
          "name": "bidder",
          "type": "address"
        },
        {
          "indexed": false,
          "internalType": "uint256",
          "name": "amount",
          "type": "uint256"
        }
      ],
      "name": "BidPlaced",
      "type": "event"
    },
    {
      "anonymous": false,
      "inputs": [
        {
          "indexed": false,
          "internalType": "address",
          "name": "user",
          "type": "address"
        },
        {
          "indexed": false,
          "internalType": "uint256",
          "name": "amount",
          "type": "uint256"
        }
      ],
      "name": "FundsWithdrawn",
      "type": "event"
    },
    {
      "inputs": [
        {
          "internalType": "uint256",
          "name": "",
          "type": "uint256"
        },
        {
          "internalType": "uint256",
          "name": "",
          "type": "uint256"
        }
      ],
      "name": "auctionBids",
      "outputs": [
        {
          "internalType": "address",
          "name": "bidder",
          "type": "address"
        },
        {
          "internalType": "uint256",
          "name": "amount",
          "type": "uint256"
        },
        {
          "internalType": "uint256",
          "name": "timestamp",
          "type": "uint256"
        }
      ],
      "stateMutability": "view",
      "type": "function"
    },
    {
      "inputs": [],
      "name": "auctionCounter",
      "outputs": [
        {
          "internalType": "uint256",
          "name": "",
          "type": "uint256"
        }
      ],
      "stateMutability": "view",
      "type": "function"
    },
    {
      "inputs": [
        {
          "internalType": "uint256",
          "name": "",
          "type": "uint256"
        }
      ],
      "name": "auctions",
      "outputs": [
        {
          "internalType": "uint256",
          "name": "id",
          "type": "uint256"
        },
        {
          "internalType": "string",
          "name": "name",
          "type": "string"
        },
        {
          "internalType": "string",
          "name": "description",
          "type": "string"
        },
        {
          "internalType": "string",
          "name": "imageUrl",
          "type": "string"
        },
        {
          "internalType": "uint256",
          "name": "startingPrice",
          "type": "uint256"
        },
        {
          "internalType": "uint256",
          "name": "currentPrice",
          "type": "uint256"
        },
        {
          "internalType": "uint256",
          "name": "endTime",
          "type": "uint256"
        },
        {
          "internalType": "address payable",
          "name": "seller",
          "type": "address"
        },
        {
          "internalType": "address payable",
          "name": "highestBidder",
          "type": "address"
        },
        {
          "internalType": "bool",
          "name": "isCompleted",
          "type": "bool"
        }
      ],
      "stateMutability": "view",
      "type": "function"
    },
    {
      "inputs": [
        {
          "internalType": "string",
          "name": "_name",
          "type": "string"
        },
        {
          "internalType": "string",
          "name": "_description",
          "type": "string"
        },
        {
          "internalType": "string",
          "name": "_imageUrl",
          "type": "string"
        },
        {
          "internalType": "uint256",
          "name": "_startingPrice",
          "type": "uint256"
        },
        {
          "internalType": "uint256",
          "name": "_duration",
          "type": "uint256"
        }
      ],
      "name": "createAuction",
      "outputs": [],
      "stateMutability": "nonpayable",
      "type": "function"
    },
    {
      "inputs": [
        {
          "internalType": "uint256",
          "name": "_auctionId",
          "type": "uint256"
        }
      ],
      "name": "endAuction",
      "outputs": [],
      "stateMutability": "nonpayable",
      "type": "function"
    },
    {
      "inputs": [],
      "name": "getAllActiveAuctions",
      "outputs": [
        {
          "components": [
            {
              "internalType": "uint256",
              "name": "id",
              "type": "uint256"
            },
            {
              "internalType": "string",
              "name": "name",
              "type": "string"
            },
            {
              "internalType": "string",
              "name": "description",
              "type": "string"
            },
            {
              "internalType": "string",
              "name": "imageUrl",
              "type": "string"
            },
            {
              "internalType": "uint256",
              "name": "startingPrice",
              "type": "uint256"
            },
            {
              "internalType": "uint256",
              "name": "currentPrice",
              "type": "uint256"
            },
            {
              "internalType": "uint256",
              "name": "endTime",
              "type": "uint256"
            },
            {
              "internalType": "address payable",
              "name": "seller",
              "type": "address"
            },
            {
              "internalType": "address payable",
              "name": "highestBidder",
              "type": "address"
            },
            {
              "internalType": "bool",
              "name": "isCompleted",
              "type": "bool"
            }
          ],
          "internalType": "struct Auction.AuctionItem[]",
          "name": "",
          "type": "tuple[]"
        }
      ],
      "stateMutability": "view",
      "type": "function"
    },
    {
      "inputs": [
        {
          "internalType": "uint256",
          "name": "_auctionId",
          "type": "uint256"
        }
      ],
      "name": "getAuction",
      "outputs": [
        {
          "components": [
            {
              "internalType": "uint256",
              "name": "id",
              "type": "uint256"
            },
            {
              "internalType": "string",
              "name": "name",
              "type": "string"
            },
            {
              "internalType": "string",
              "name": "description",
              "type": "string"
            },
            {
              "internalType": "string",
              "name": "imageUrl",
              "type": "string"
            },
            {
              "internalType": "uint256",
              "name": "startingPrice",
              "type": "uint256"
            },
            {
              "internalType": "uint256",
              "name": "currentPrice",
              "type": "uint256"
            },
            {
              "internalType": "uint256",
              "name": "endTime",
              "type": "uint256"
            },
            {
              "internalType": "address payable",
              "name": "seller",
              "type": "address"
            },
            {
              "internalType": "address payable",
              "name": "highestBidder",
              "type": "address"
            },
            {
              "internalType": "bool",
              "name": "isCompleted",
              "type": "bool"
            }
          ],
          "internalType": "struct Auction.AuctionItem",
          "name": "",
          "type": "tuple"
        }
      ],
      "stateMutability": "view",
      "type": "function"
    },
    {
      "inputs": [
        {
          "internalType": "uint256",
          "name": "_auctionId",
          "type": "uint256"
        }
      ],
      "name": "getAuctionBids",
      "outputs": [
        {
          "components": [
            {
              "internalType": "address",
              "name": "bidder",
              "type": "address"
            },
            {
              "internalType": "uint256",
              "name": "amount",
              "type": "uint256"
            },
            {
              "internalType": "uint256",
              "name": "timestamp",
              "type": "uint256"
            }
          ],
          "internalType": "struct Auction.Bid[]",
          "name": "",
          "type": "tuple[]"
        }
      ],
      "stateMutability": "view",
      "type": "function"
    },
    {
      "inputs": [],
      "name": "getCompletedAuctions",
      "outputs": [
        {
          "components": [
            {
              "internalType": "uint256",
              "name": "id",
              "type": "uint256"
            },
            {
              "internalType": "string",
              "name": "name",
              "type": "string"
            },
            {
              "internalType": "string",
              "name": "description",
              "type": "string"
            },
            {
              "internalType": "string",
              "name": "imageUrl",
              "type": "string"
            },
            {
              "internalType": "uint256",
              "name": "startingPrice",
              "type": "uint256"
            },
            {
              "internalType": "uint256",
              "name": "currentPrice",
              "type": "uint256"
            },
            {
              "internalType": "uint256",
              "name": "endTime",
              "type": "uint256"
            },
            {
              "internalType": "address payable",
              "name": "seller",
              "type": "address"
            },
            {
              "internalType": "address payable",
              "name": "highestBidder",
              "type": "address"
            },
            {
              "internalType": "bool",
              "name": "isCompleted",
              "type": "bool"
            }
          ],
          "internalType": "struct Auction.AuctionItem[]",
          "name": "",
          "type": "tuple[]"
        }
      ],
      "stateMutability": "view",
      "type": "function"
    },
    {
      "inputs": [
        {
          "internalType": "uint256",
          "name": "_auctionId",
          "type": "uint256"
        },
        {
          "internalType": "address",
          "name": "_user",
          "type": "address"
        }
      ],
      "name": "getPendingReturn",
      "outputs": [
        {
          "internalType": "uint256",
          "name": "",
          "type": "uint256"
        }
      ],
      "stateMutability": "view",
      "type": "function"
    },
    {
      "inputs": [],
      "name": "getWaitingEndAuctions",
      "outputs": [
        {
          "components": [
            {
              "internalType": "uint256",
              "name": "id",
              "type": "uint256"
            },
            {
              "internalType": "string",
              "name": "name",
              "type": "string"
            },
            {
              "internalType": "string",
              "name": "description",
              "type": "string"
            },
            {
              "internalType": "string",
              "name": "imageUrl",
              "type": "string"
            },
            {
              "internalType": "uint256",
              "name": "startingPrice",
              "type": "uint256"
            },
            {
              "internalType": "uint256",
              "name": "currentPrice",
              "type": "uint256"
            },
            {
              "internalType": "uint256",
              "name": "endTime",
              "type": "uint256"
            },
            {
              "internalType": "address payable",
              "name": "seller",
              "type": "address"
            },
            {
              "internalType": "address payable",
              "name": "highestBidder",
              "type": "address"
            },
            {
              "internalType": "bool",
              "name": "isCompleted",
              "type": "bool"
            }
          ],
          "internalType": "struct Auction.AuctionItem[]",
          "name": "",
          "type": "tuple[]"
        }
      ],
      "stateMutability": "view",
      "type": "function"
    },
    {
      "inputs": [],
      "name": "owner",
      "outputs": [
        {
          "internalType": "address payable",
          "name": "",
          "type": "address"
        }
      ],
      "stateMutability": "view",
      "type": "function"
    },
    {
      "inputs": [
        {
          "internalType": "uint256",
          "name": "",
          "type": "uint256"
        },
        {
          "internalType": "address",
          "name": "",
          "type": "address"
        }
      ],
      "name": "pendingReturns",
      "outputs": [
        {
          "internalType": "uint256",
          "name": "",
          "type": "uint256"
        }
      ],
      "stateMutability": "view",
      "type": "function"
    },
    {
      "inputs": [
        {
          "internalType": "uint256",
          "name": "_auctionId",
          "type": "uint256"
        }
      ],
      "name": "placeBid",
      "outputs": [],
      "stateMutability": "payable",
      "type": "function"
    },
    {
      "inputs": [],
      "name": "platformFeePercent",
      "outputs": [
        {
          "internalType": "uint256",
          "name": "",
          "type": "uint256"
        }
      ],
      "stateMutability": "view",
      "type": "function"
    },
    {
      "inputs": [
        {
          "internalType": "uint256",
          "name": "_newFee",
          "type": "uint256"
        }
      ],
      "name": "updatePlatformFee",
      "outputs": [],
      "stateMutability": "nonpayable",
      "type": "function"
    },
    {
      "inputs": [
        {
          "internalType": "uint256",
          "name": "_auctionId",
          "type": "uint256"
        }
      ],
      "name": "withdraw",
      "outputs": [],
      "stateMutability": "nonpayable",
      "type": "function"
    },
    {
      "stateMutability": "payable",
      "type": "receive"
    }
  ],
  "bytecode": "0x608060405260026004553480156013575f5ffd5b50600580546001600160a01b03191633179055612137806100335f395ff3fe6080604052600436106100fd575f3560e01c80638da5cb5b11610092578063aa0b598811610062578063aa0b5988146102fb578063b9a2de3a1461031a578063cb7b43ef14610339578063d02ef6f91461034d578063f8499a9e1461036c575f5ffd5b80638da5cb5b146102665780638ddac1ef1461029d5780639979ef45146102d3578063a7e76644146102e6575f5ffd5b80635f93de49116100cd5780635f93de49146101a757806370b4768e146101eb57806378bd7935146102175780638c639a8514610243575f5ffd5b80632dee466d146101085780632e1a7d4d14610132578063571a26a01461015357806358574dca14610188575f5ffd5b3661010457005b5f5ffd5b348015610113575f5ffd5b5061011c610380565b6040516101299190611beb565b60405180910390f35b34801561013d575f5ffd5b5061015161014c366004611c4e565b6106df565b005b34801561015e575f5ffd5b5061017261016d366004611c4e565b6107c2565b6040516101299a99989796959493929190611c65565b348015610193575f5ffd5b506101516101a2366004611d86565b6109b5565b3480156101b2575f5ffd5b506101c66101c1366004611e25565b610bbc565b604080516001600160a01b039094168452602084019290925290820152606001610129565b3480156101f6575f5ffd5b5061020a610205366004611c4e565b610c04565b6040516101299190611e45565b348015610222575f5ffd5b50610236610231366004611c4e565b610c95565b6040516101299190611ea9565b34801561024e575f5ffd5b5061025860045481565b604051908152602001610129565b348015610271575f5ffd5b50600554610285906001600160a01b031681565b6040516001600160a01b039091168152602001610129565b3480156102a8575f5ffd5b506102586102b7366004611ec2565b600260209081525f928352604080842090915290825290205481565b6101516102e1366004611c4e565b610ec7565b3480156102f1575f5ffd5b5061025860035481565b348015610306575f5ffd5b50610151610315366004611c4e565b61110b565b348015610325575f5ffd5b50610151610334366004611c4e565b611192565b348015610344575f5ffd5b5061011c6113f5565b348015610358575f5ffd5b50610258610367366004611ec2565b611713565b348015610377575f5ffd5b5061011c61173c565b60605f805b6003548110156103e1575f81815260208190526040902060080154600160a01b900460ff161580156103c657505f8181526020819052604090206006015442105b156103d957816103d581611f0f565b9250505b600101610385565b505f8167ffffffffffffffff8111156103fc576103fc611ce7565b60405190808252806020026020018201604052801561043557816020015b610422611a94565b81526020019060019003908161041a5790505b5090505f805b6003548110156106d6575f81815260208190526040902060080154600160a01b900460ff1615801561047c57505f8181526020819052604090206006015442105b156106ce575f8181526020818152604091829020825161014081019093528054835260018101805491928401916104b290611f27565b80601f01602080910402602001604051908101604052809291908181526020018280546104de90611f27565b80156105295780601f1061050057610100808354040283529160200191610529565b820191905f5260205f20905b81548152906001019060200180831161050c57829003601f168201915b5050505050815260200160028201805461054290611f27565b80601f016020809104026020016040519081016040528092919081815260200182805461056e90611f27565b80156105b95780601f10610590576101008083540402835291602001916105b9565b820191905f5260205f20905b81548152906001019060200180831161059c57829003601f168201915b505050505081526020016003820180546105d290611f27565b80601f01602080910402602001604051908101604052809291908181526020018280546105fe90611f27565b80156106495780601f1061062057610100808354040283529160200191610649565b820191905f5260205f20905b81548152906001019060200180831161062c57829003601f168201915b505050918352505060048201546020820152600582015460408201526006820154606082015260078201546001600160a01b03908116608083015260089092015491821660a0820152600160a01b90910460ff16151560c09091015283836106b081611f0f565b9450815181106106c2576106c2611f5f565b60200260200101819052505b60010161043b565b50909392505050565b5f818152600260209081526040808320338452909152902054806107405760405162461bcd60e51b81526020600482015260136024820152724e6f7468696e6720746f20776974686472617760681b60448201526064015b60405180910390fd5b5f82815260026020908152604080832033808552925280832083905551909183156108fc02918491818181858888f19350505050158015610783573d5f5f3e3d5ffd5b5060408051338152602081018390527feaff4b37086828766ad3268786972c0cd24259d4c87a80f9d3963a3c3d999b0d91015b60405180910390a15050565b5f60208190529081526040902080546001820180549192916107e390611f27565b80601f016020809104026020016040519081016040528092919081815260200182805461080f90611f27565b801561085a5780601f106108315761010080835404028352916020019161085a565b820191905f5260205f20905b81548152906001019060200180831161083d57829003601f168201915b50505050509080600201805461086f90611f27565b80601f016020809104026020016040519081016040528092919081815260200182805461089b90611f27565b80156108e65780601f106108bd576101008083540402835291602001916108e6565b820191905f5260205f20905b8154815290600101906020018083116108c957829003601f168201915b5050505050908060030180546108fb90611f27565b80601f016020809104026020016040519081016040528092919081815260200182805461092790611f27565b80156109725780601f1061094957610100808354040283529160200191610972565b820191905f5260205f20905b81548152906001019060200180831161095557829003601f168201915b50505060048401546005850154600686015460078701546008909701549596929591945092506001600160a01b039182169181169060ff600160a01b909104168a565b5f82116109f95760405162461bcd60e51b815260206004820152601260248201527105374617274696e67207072696365203e20360741b6044820152606401610737565b61012c811015610a3b5760405162461bcd60e51b815260206004820152600d60248201526c4d696e2035206d696e7574657360981b6044820152606401610737565b600380545f9182610a4b83611f0f565b9190505590506040518061014001604052808281526020018781526020018681526020018581526020018481526020018481526020018342610a8d9190611f73565b8152336020808301919091525f604080840182905260609093018190528481528082529190912082518155908201516001820190610acb9082611fd2565b5060408201516002820190610ae09082611fd2565b5060608201516003820190610af59082611fd2565b506080820151600482015560a0820151600582015560c0820151600682015560e08201516007820180546001600160a01b0319166001600160a01b039283161790556101008301516008909201805461012090940151929091166001600160a81b031990931692909217600160a01b911515919091021790557f5bf34ed94988e5dcdc7d1faaa54eb1d3b55f45d5f11457e235afb21a8ebbe73c818785610b9c8642611f73565b604051610bac949392919061208d565b60405180910390a1505050505050565b6001602052815f5260405f208181548110610bd5575f80fd5b5f9182526020909120600390910201805460018201546002909201546001600160a01b03909116935090915083565b606060015f8381526020019081526020015f20805480602002602001604051908101604052809291908181526020015f905b82821015610c8a575f848152602090819020604080516060810182526003860290920180546001600160a01b0316835260018082015484860152600290910154918301919091529083529092019101610c36565b505050509050919050565b610c9d611a94565b5f828152602081815260409182902082516101408101909352805483526001810180549192840191610cce90611f27565b80601f0160208091040260200160405190810160405280929190818152602001828054610cfa90611f27565b8015610d455780601f10610d1c57610100808354040283529160200191610d45565b820191905f5260205f20905b815481529060010190602001808311610d2857829003601f168201915b50505050508152602001600282018054610d5e90611f27565b80601f0160208091040260200160405190810160405280929190818152602001828054610d8a90611f27565b8015610dd55780601f10610dac57610100808354040283529160200191610dd5565b820191905f5260205f20905b815481529060010190602001808311610db857829003601f168201915b50505050508152602001600382018054610dee90611f27565b80601f0160208091040260200160405190810160405280929190818152602001828054610e1a90611f27565b8015610e655780601f10610e3c57610100808354040283529160200191610e65565b820191905f5260205f20905b815481529060010190602001808311610e4857829003601f168201915b505050918352505060048201546020820152600582015460408201526006820154606082015260078201546001600160a01b03908116608083015260089092015491821660a0820152600160a01b90910460ff16151560c09091015292915050565b5f8181526020819052604090206008810154600160a01b900460ff1615610f205760405162461bcd60e51b815260206004820152600d60248201526c105d58dd1a5bdb88195b991959609a1b6044820152606401610737565b80600601544210610f635760405162461bcd60e51b815260206004820152600d60248201526c105d58dd1a5bdb88195b991959609a1b6044820152606401610737565b60078101546001600160a01b03163303610fb35760405162461bcd60e51b815260206004820152601160248201527014d95b1b195c8818d85b9b9bdd08189a59607a1b6044820152606401610737565b80600501543411610ff45760405162461bcd60e51b815260206004820152600b60248201526a42696420746f6f206c6f7760a81b6044820152606401610737565b60088101546001600160a01b0316156110475760058101545f83815260026020908152604080832060088601546001600160a01b0316845290915281208054909190611041908490611f73565b90915550505b3460058201819055600882018054336001600160a01b031991821681179092555f8581526001602081815260408084208151606080820184528882528185018a81524283860190815284548089018655948952978690209251600390940290920180549098166001600160a01b03909316929092178755519386019390935592516002909401939093558151878152928301939093528101929092527f0e54eff26401bf69b81b26f60bd85ef47f5d85275c1d268d84f68d6897431c4791016107b6565b6005546001600160a01b031633146111525760405162461bcd60e51b815260206004820152600a60248201526927b7363c9037bbb732b960b11b6044820152606401610737565b600a81111561118d5760405162461bcd60e51b81526020600482015260076024820152664d61782031302560c81b6044820152606401610737565b600455565b5f8181526020819052604090206008810154600160a01b900460ff16156111eb5760405162461bcd60e51b815260206004820152600d60248201526c105b1c9958591e48195b991959609a1b6044820152606401610737565b80600601544210156112325760405162461bcd60e51b815260206004820152601060248201526f139bdd08199a5b9a5cda1959081e595d60821b6044820152606401610737565b60078101546001600160a01b031633148061125757506005546001600160a01b031633145b6112945760405162461bcd60e51b815260206004820152600e60248201526d139bdd08185d5d1a1bdc9a5e995960921b6044820152606401610737565b60088101805460ff60a01b198116600160a01b179091556001600160a01b0316156113b5575f606460045483600501546112ce91906120b8565b6112d891906120cf565b90505f8183600501546112eb91906120ee565b60078401546040519192506001600160a01b03169082156108fc029083905f818181858888f19350505050158015611325573d5f5f3e3d5ffd5b506005546040516001600160a01b039091169083156108fc029084905f818181858888f1935050505015801561135d573d5f5f3e3d5ffd5b5060088301546005840154604080518781526001600160a01b0390931660208401528201527fd2aa34a4fdbbc6dff6a3e56f46e0f3ae2a31d7785ff3487aa5c95c642acea5019060600160405180910390a150505050565b604080518381525f60208201819052918101919091527fd2aa34a4fdbbc6dff6a3e56f46e0f3ae2a31d7785ff3487aa5c95c642acea501906060016107b6565b60605f805b60035481101561143a575f81815260208190526040902060080154600160a01b900460ff1615611432578161142e81611f0f565b9250505b6001016113fa565b505f8167ffffffffffffffff81111561145557611455611ce7565b60405190808252806020026020018201604052801561148e57816020015b61147b611a94565b8152602001906001900390816114735790505b5090505f805b6003548110156106d6575f81815260208190526040902060080154600160a01b900460ff161561170b575f8181526020818152604091829020825161014081019093528054835260018101805491928401916114ef90611f27565b80601f016020809104026020016040519081016040528092919081815260200182805461151b90611f27565b80156115665780601f1061153d57610100808354040283529160200191611566565b820191905f5260205f20905b81548152906001019060200180831161154957829003601f168201915b5050505050815260200160028201805461157f90611f27565b80601f01602080910402602001604051908101604052809291908181526020018280546115ab90611f27565b80156115f65780601f106115cd576101008083540402835291602001916115f6565b820191905f5260205f20905b8154815290600101906020018083116115d957829003601f168201915b5050505050815260200160038201805461160f90611f27565b80601f016020809104026020016040519081016040528092919081815260200182805461163b90611f27565b80156116865780601f1061165d57610100808354040283529160200191611686565b820191905f5260205f20905b81548152906001019060200180831161166957829003601f168201915b505050918352505060048201546020820152600582015460408201526006820154606082015260078201546001600160a01b03908116608083015260089092015491821660a0820152600160a01b90910460ff16151560c09091015283836116ed81611f0f565b9450815181106116ff576116ff611f5f565b60200260200101819052505b600101611494565b5f8281526002602090815260408083206001600160a01b03851684529091529020545b92915050565b60605f805b60035481101561179e575f81815260208190526040902060080154600160a01b900460ff1615801561178357505f818152602081905260409020600601544210155b15611796578161179281611f0f565b9250505b600101611741565b505f8167ffffffffffffffff8111156117b9576117b9611ce7565b6040519080825280602002602001820160405280156117f257816020015b6117df611a94565b8152602001906001900390816117d75790505b5090505f805b6003548110156106d6575f81815260208190526040902060080154600160a01b900460ff1615801561183a57505f818152602081905260409020600601544210155b15611a8c575f81815260208181526040918290208251610140810190935280548352600181018054919284019161187090611f27565b80601f016020809104026020016040519081016040528092919081815260200182805461189c90611f27565b80156118e75780601f106118be576101008083540402835291602001916118e7565b820191905f5260205f20905b8154815290600101906020018083116118ca57829003601f168201915b5050505050815260200160028201805461190090611f27565b80601f016020809104026020016040519081016040528092919081815260200182805461192c90611f27565b80156119775780601f1061194e57610100808354040283529160200191611977565b820191905f5260205f20905b81548152906001019060200180831161195a57829003601f168201915b5050505050815260200160038201805461199090611f27565b80601f01602080910402602001604051908101604052809291908181526020018280546119bc90611f27565b8015611a075780601f106119de57610100808354040283529160200191611a07565b820191905f5260205f20905b8154815290600101906020018083116119ea57829003601f168201915b505050918352505060048201546020820152600582015460408201526006820154606082015260078201546001600160a01b03908116608083015260089092015491821660a0820152600160a01b90910460ff16151560c0909101528383611a6e81611f0f565b945081518110611a8057611a80611f5f565b60200260200101819052505b6001016117f8565b6040518061014001604052805f81526020016060815260200160608152602001606081526020015f81526020015f81526020015f81526020015f6001600160a01b031681526020015f6001600160a01b031681526020015f151581525090565b5f81518084528060208401602086015e5f602082860101526020601f19601f83011685010191505092915050565b805182525f60208201516101406020850152611b42610140850182611af4565b905060408301518482036040860152611b5b8282611af4565b91505060608301518482036060860152611b758282611af4565b9150506080830151608085015260a083015160a085015260c083015160c085015260e0830151611bb060e08601826001600160a01b03169052565b50610100830151611bcd6101008601826001600160a01b03169052565b50610120830151611be361012086018215159052565b509392505050565b5f602082016020835280845180835260408501915060408160051b8601019250602086015f5b82811015611c4257603f19878603018452611c2d858351611b22565b94506020938401939190910190600101611c11565b50929695505050505050565b5f60208284031215611c5e575f5ffd5b5035919050565b8a815261014060208201525f611c7f61014083018c611af4565b8281036040840152611c91818c611af4565b90508281036060840152611ca5818b611af4565b6080840199909952505060a081019590955260c08501939093526001600160a01b0391821660e085015216610100830152151561012090910152949350505050565b634e487b7160e01b5f52604160045260245ffd5b5f82601f830112611d0a575f5ffd5b813567ffffffffffffffff811115611d2457611d24611ce7565b604051601f8201601f19908116603f0116810167ffffffffffffffff81118282101715611d5357611d53611ce7565b604052818152838201602001851015611d6a575f5ffd5b816020850160208301375f918101602001919091529392505050565b5f5f5f5f5f60a08688031215611d9a575f5ffd5b853567ffffffffffffffff811115611db0575f5ffd5b611dbc88828901611cfb565b955050602086013567ffffffffffffffff811115611dd8575f5ffd5b611de488828901611cfb565b945050604086013567ffffffffffffffff811115611e00575f5ffd5b611e0c88828901611cfb565b9598949750949560608101359550608001359392505050565b5f5f60408385031215611e36575f5ffd5b50508035926020909101359150565b602080825282518282018190525f918401906040840190835b81811015611e9e57835180516001600160a01b03168452602080820151818601526040918201519185019190915290930192606090920191600101611e5e565b509095945050505050565b602081525f611ebb6020830184611b22565b9392505050565b5f5f60408385031215611ed3575f5ffd5b8235915060208301356001600160a01b0381168114611ef0575f5ffd5b809150509250929050565b634e487b7160e01b5f52601160045260245ffd5b5f60018201611f2057611f20611efb565b5060010190565b600181811c90821680611f3b57607f821691505b602082108103611f5957634e487b7160e01b5f52602260045260245ffd5b50919050565b634e487b7160e01b5f52603260045260245ffd5b8082018082111561173657611736611efb565b601f821115611fcd57805f5260205f20601f840160051c81016020851015611fab5750805b601f840160051c820191505b81811015611fca575f8155600101611fb7565b50505b505050565b815167ffffffffffffffff811115611fec57611fec611ce7565b61200081611ffa8454611f27565b84611f86565b6020601f821160018114612032575f831561201b5750848201515b5f19600385901b1c1916600184901b178455611fca565b5f84815260208120601f198516915b828110156120615787850151825560209485019460019092019101612041565b508482101561207e57868401515f19600387901b60f8161c191681555b50505050600190811b01905550565b848152608060208201525f6120a56080830186611af4565b6040830194909452506060015292915050565b808202811582820484141761173657611736611efb565b5f826120e957634e487b7160e01b5f52601260045260245ffd5b500490565b8181038181111561173657611736611efb56fea2646970667358221220dd64d2444f5d6f1f58129ade8e38c702120c57f7609f557887697e5ceb476b4364736f6c634300081c0033",
  "linkReferences": {},
  "deployedLinkReferences": {},
  "immutableReferences": {},
  "inputSourceName": "project/contracts/Auction.sol",
  "buildInfoId": "solc-0_8_28-d39b59b008f0fb9d682ae66bac979c7e94bdcf7f"
}