{
  "_format": "hh3-artifact-1",
  "contractName": "Auction",
  "sourceName": "contracts/Auction.sol",
  "abi": [
    {
      "inputs": [],
      "stateMutability": "nonpayable",
      "type": "constructor"
    },
    {
      "anonymous": false,
      "inputs": [
        {
          "indexed": false,
          "internalType": "uint256",
          "name": "auctionId",
          "type": "uint256"
        },
        {
          "indexed": false,
          "internalType": "string",
          "name": "name",
          "type": "string"
        },
        {
          "indexed": false,
          "internalType": "uint256",
          "name": "startingPrice",
          "type": "uint256"
        },
        {
          "indexed": false,
          "internalType": "uint256",
          "name": "endTime",
          "type": "uint256"
        }
      ],
      "name": "AuctionCreated",
      "type": "event"
    },
    {
      "anonymous": false,
      "inputs": [
        {
          "indexed": false,
          "internalType": "uint256",
          "name": "auctionId",
          "type": "uint256"
        },
        {
          "indexed": false,
          "internalType": "address",
          "name": "winner",
          "type": "address"
        },
        {
          "indexed": false,
          "internalType": "uint256",
          "name": "finalPrice",
          "type": "uint256"
        }
      ],
      "name": "AuctionEnded",
      "type": "event"
    },
    {
      "anonymous": false,
      "inputs": [
        {
          "indexed": false,
          "internalType": "uint256",
          "name": "auctionId",
          "type": "uint256"
        },
        {
          "indexed": false,
          "internalType": "address",
          "name": "bidder",
          "type": "address"
        },
        {
          "indexed": false,
          "internalType": "uint256",
          "name": "amount",
          "type": "uint256"
        }
      ],
      "name": "BidPlaced",
      "type": "event"
    },
    {
      "anonymous": false,
      "inputs": [
        {
          "indexed": false,
          "internalType": "address",
          "name": "user",
          "type": "address"
        },
        {
          "indexed": false,
          "internalType": "uint256",
          "name": "amount",
          "type": "uint256"
        }
      ],
      "name": "FundsWithdrawn",
      "type": "event"
    },
    {
      "inputs": [
        {
          "internalType": "uint256",
          "name": "",
          "type": "uint256"
        },
        {
          "internalType": "uint256",
          "name": "",
          "type": "uint256"
        }
      ],
      "name": "auctionBids",
      "outputs": [
        {
          "internalType": "address",
          "name": "bidder",
          "type": "address"
        },
        {
          "internalType": "uint256",
          "name": "amount",
          "type": "uint256"
        },
        {
          "internalType": "uint256",
          "name": "timestamp",
          "type": "uint256"
        }
      ],
      "stateMutability": "view",
      "type": "function"
    },
    {
      "inputs": [],
      "name": "auctionCounter",
      "outputs": [
        {
          "internalType": "uint256",
          "name": "",
          "type": "uint256"
        }
      ],
      "stateMutability": "view",
      "type": "function"
    },
    {
      "inputs": [
        {
          "internalType": "uint256",
          "name": "",
          "type": "uint256"
        }
      ],
      "name": "auctions",
      "outputs": [
        {
          "internalType": "uint256",
          "name": "id",
          "type": "uint256"
        },
        {
          "internalType": "string",
          "name": "name",
          "type": "string"
        },
        {
          "internalType": "string",
          "name": "description",
          "type": "string"
        },
        {
          "internalType": "string",
          "name": "imageUrl",
          "type": "string"
        },
        {
          "internalType": "uint256",
          "name": "startingPrice",
          "type": "uint256"
        },
        {
          "internalType": "uint256",
          "name": "currentPrice",
          "type": "uint256"
        },
        {
          "internalType": "uint256",
          "name": "endTime",
          "type": "uint256"
        },
        {
          "internalType": "address payable",
          "name": "seller",
          "type": "address"
        },
        {
          "internalType": "address payable",
          "name": "highestBidder",
          "type": "address"
        },
        {
          "internalType": "bool",
          "name": "isActive",
          "type": "bool"
        },
        {
          "internalType": "bool",
          "name": "isCompleted",
          "type": "bool"
        }
      ],
      "stateMutability": "view",
      "type": "function"
    },
    {
      "inputs": [
        {
          "internalType": "string",
          "name": "_name",
          "type": "string"
        },
        {
          "internalType": "string",
          "name": "_description",
          "type": "string"
        },
        {
          "internalType": "string",
          "name": "_imageUrl",
          "type": "string"
        },
        {
          "internalType": "uint256",
          "name": "_startingPrice",
          "type": "uint256"
        },
        {
          "internalType": "uint256",
          "name": "_duration",
          "type": "uint256"
        }
      ],
      "name": "createAuction",
      "outputs": [],
      "stateMutability": "nonpayable",
      "type": "function"
    },
    {
      "inputs": [
        {
          "internalType": "uint256",
          "name": "_auctionId",
          "type": "uint256"
        }
      ],
      "name": "endAuction",
      "outputs": [],
      "stateMutability": "nonpayable",
      "type": "function"
    },
    {
      "inputs": [],
      "name": "getAllActiveAuctions",
      "outputs": [
        {
          "components": [
            {
              "internalType": "uint256",
              "name": "id",
              "type": "uint256"
            },
            {
              "internalType": "string",
              "name": "name",
              "type": "string"
            },
            {
              "internalType": "string",
              "name": "description",
              "type": "string"
            },
            {
              "internalType": "string",
              "name": "imageUrl",
              "type": "string"
            },
            {
              "internalType": "uint256",
              "name": "startingPrice",
              "type": "uint256"
            },
            {
              "internalType": "uint256",
              "name": "currentPrice",
              "type": "uint256"
            },
            {
              "internalType": "uint256",
              "name": "endTime",
              "type": "uint256"
            },
            {
              "internalType": "address payable",
              "name": "seller",
              "type": "address"
            },
            {
              "internalType": "address payable",
              "name": "highestBidder",
              "type": "address"
            },
            {
              "internalType": "bool",
              "name": "isActive",
              "type": "bool"
            },
            {
              "internalType": "bool",
              "name": "isCompleted",
              "type": "bool"
            }
          ],
          "internalType": "struct Auction.AuctionItem[]",
          "name": "",
          "type": "tuple[]"
        }
      ],
      "stateMutability": "view",
      "type": "function"
    },
    {
      "inputs": [
        {
          "internalType": "uint256",
          "name": "_auctionId",
          "type": "uint256"
        }
      ],
      "name": "getAuction",
      "outputs": [
        {
          "components": [
            {
              "internalType": "uint256",
              "name": "id",
              "type": "uint256"
            },
            {
              "internalType": "string",
              "name": "name",
              "type": "string"
            },
            {
              "internalType": "string",
              "name": "description",
              "type": "string"
            },
            {
              "internalType": "string",
              "name": "imageUrl",
              "type": "string"
            },
            {
              "internalType": "uint256",
              "name": "startingPrice",
              "type": "uint256"
            },
            {
              "internalType": "uint256",
              "name": "currentPrice",
              "type": "uint256"
            },
            {
              "internalType": "uint256",
              "name": "endTime",
              "type": "uint256"
            },
            {
              "internalType": "address payable",
              "name": "seller",
              "type": "address"
            },
            {
              "internalType": "address payable",
              "name": "highestBidder",
              "type": "address"
            },
            {
              "internalType": "bool",
              "name": "isActive",
              "type": "bool"
            },
            {
              "internalType": "bool",
              "name": "isCompleted",
              "type": "bool"
            }
          ],
          "internalType": "struct Auction.AuctionItem",
          "name": "",
          "type": "tuple"
        }
      ],
      "stateMutability": "view",
      "type": "function"
    },
    {
      "inputs": [
        {
          "internalType": "uint256",
          "name": "_auctionId",
          "type": "uint256"
        }
      ],
      "name": "getAuctionBids",
      "outputs": [
        {
          "components": [
            {
              "internalType": "address",
              "name": "bidder",
              "type": "address"
            },
            {
              "internalType": "uint256",
              "name": "amount",
              "type": "uint256"
            },
            {
              "internalType": "uint256",
              "name": "timestamp",
              "type": "uint256"
            }
          ],
          "internalType": "struct Auction.Bid[]",
          "name": "",
          "type": "tuple[]"
        }
      ],
      "stateMutability": "view",
      "type": "function"
    },
    {
      "inputs": [
        {
          "internalType": "uint256",
          "name": "_auctionId",
          "type": "uint256"
        },
        {
          "internalType": "address",
          "name": "_user",
          "type": "address"
        }
      ],
      "name": "getPendingReturn",
      "outputs": [
        {
          "internalType": "uint256",
          "name": "",
          "type": "uint256"
        }
      ],
      "stateMutability": "view",
      "type": "function"
    },
    {
      "inputs": [],
      "name": "owner",
      "outputs": [
        {
          "internalType": "address payable",
          "name": "",
          "type": "address"
        }
      ],
      "stateMutability": "view",
      "type": "function"
    },
    {
      "inputs": [
        {
          "internalType": "uint256",
          "name": "",
          "type": "uint256"
        },
        {
          "internalType": "address",
          "name": "",
          "type": "address"
        }
      ],
      "name": "pendingReturns",
      "outputs": [
        {
          "internalType": "uint256",
          "name": "",
          "type": "uint256"
        }
      ],
      "stateMutability": "view",
      "type": "function"
    },
    {
      "inputs": [
        {
          "internalType": "uint256",
          "name": "_auctionId",
          "type": "uint256"
        }
      ],
      "name": "placeBid",
      "outputs": [],
      "stateMutability": "payable",
      "type": "function"
    },
    {
      "inputs": [],
      "name": "platformFeePercent",
      "outputs": [
        {
          "internalType": "uint256",
          "name": "",
          "type": "uint256"
        }
      ],
      "stateMutability": "view",
      "type": "function"
    },
    {
      "inputs": [
        {
          "internalType": "uint256",
          "name": "_newFee",
          "type": "uint256"
        }
      ],
      "name": "updatePlatformFee",
      "outputs": [],
      "stateMutability": "nonpayable",
      "type": "function"
    },
    {
      "inputs": [
        {
          "internalType": "uint256",
          "name": "_auctionId",
          "type": "uint256"
        }
      ],
      "name": "withdraw",
      "outputs": [],
      "stateMutability": "nonpayable",
      "type": "function"
    },
    {
      "stateMutability": "payable",
      "type": "receive"
    }
  ],
  "bytecode": "0x608060405260026004553480156013575f5ffd5b50600580546001600160a01b03191633179055611b58806100335f395ff3fe6080604052600436106100e7575f3560e01c80638c639a8511610087578063a7e7664411610057578063a7e76644146102d1578063aa0b5988146102e6578063b9a2de3a14610305578063d02ef6f914610324575f5ffd5b80638c639a851461022e5780638da5cb5b146102515780638ddac1ef146102885780639979ef45146102be575f5ffd5b806358574dca116100c257806358574dca146101735780635f93de491461019257806370b4768e146101d657806378bd793514610202575f5ffd5b80632dee466d146100f25780632e1a7d4d1461011c578063571a26a01461013d575f5ffd5b366100ee57005b5f5ffd5b3480156100fd575f5ffd5b50610106610343565b60405161011391906115f6565b60405180910390f35b348015610127575f5ffd5b5061013b610136366004611659565b6106b2565b005b348015610148575f5ffd5b5061015c610157366004611659565b610795565b6040516101139b9a99989796959493929190611670565b34801561017e575f5ffd5b5061013b61018d3660046117a7565b610991565b34801561019d575f5ffd5b506101b16101ac366004611846565b610bbc565b604080516001600160a01b039094168452602084019290925290820152606001610113565b3480156101e1575f5ffd5b506101f56101f0366004611659565b610c04565b6040516101139190611866565b34801561020d575f5ffd5b5061022161021c366004611659565b610c95565b60405161011391906118ca565b348015610239575f5ffd5b5061024360045481565b604051908152602001610113565b34801561025c575f5ffd5b50600554610270906001600160a01b031681565b6040516001600160a01b039091168152602001610113565b348015610293575f5ffd5b506102436102a23660046118e3565b600260209081525f928352604080842090915290825290205481565b61013b6102cc366004611659565b610ed9565b3480156102dc575f5ffd5b5061024360035481565b3480156102f1575f5ffd5b5061013b610300366004611659565b61111f565b348015610310575f5ffd5b5061013b61031f366004611659565b6111a6565b34801561032f575f5ffd5b5061024361033e3660046118e3565b611458565b60605f805b6003548110156103a3575f81815260208190526040902060080154600160a01b900460ff16801561038857505f8181526020819052604090206006015442105b1561039b578161039781611930565b9250505b600101610348565b505f8167ffffffffffffffff8111156103be576103be611708565b6040519080825280602002602001820160405280156103f757816020015b6103e4611481565b8152602001906001900390816103dc5790505b5090505f805b6003548110156106a9575f81815260208190526040902060080154600160a01b900460ff16801561043d57505f8181526020819052604090206006015442105b156106a1575f81815260208181526040918290208251610160810190935280548352600181018054919284019161047390611948565b80601f016020809104026020016040519081016040528092919081815260200182805461049f90611948565b80156104ea5780601f106104c1576101008083540402835291602001916104ea565b820191905f5260205f20905b8154815290600101906020018083116104cd57829003601f168201915b5050505050815260200160028201805461050390611948565b80601f016020809104026020016040519081016040528092919081815260200182805461052f90611948565b801561057a5780601f106105515761010080835404028352916020019161057a565b820191905f5260205f20905b81548152906001019060200180831161055d57829003601f168201915b5050505050815260200160038201805461059390611948565b80601f01602080910402602001604051908101604052809291908181526020018280546105bf90611948565b801561060a5780601f106105e15761010080835404028352916020019161060a565b820191905f5260205f20905b8154815290600101906020018083116105ed57829003601f168201915b505050918352505060048201546020820152600582015460408201526006820154606082015260078201546001600160a01b03908116608083015260089092015491821660a082015260ff600160a01b83048116151560c0830152600160a81b909204909116151560e090910152838361068381611930565b94508151811061069557610695611980565b60200260200101819052505b6001016103fd565b50909392505050565b5f818152600260209081526040808320338452909152902054806107135760405162461bcd60e51b81526020600482015260136024820152724e6f7468696e6720746f20776974686472617760681b60448201526064015b60405180910390fd5b5f82815260026020908152604080832033808552925280832083905551909183156108fc02918491818181858888f19350505050158015610756573d5f5f3e3d5ffd5b5060408051338152602081018390527feaff4b37086828766ad3268786972c0cd24259d4c87a80f9d3963a3c3d999b0d91015b60405180910390a15050565b5f60208190529081526040902080546001820180549192916107b690611948565b80601f01602080910402602001604051908101604052809291908181526020018280546107e290611948565b801561082d5780601f106108045761010080835404028352916020019161082d565b820191905f5260205f20905b81548152906001019060200180831161081057829003601f168201915b50505050509080600201805461084290611948565b80601f016020809104026020016040519081016040528092919081815260200182805461086e90611948565b80156108b95780601f10610890576101008083540402835291602001916108b9565b820191905f5260205f20905b81548152906001019060200180831161089c57829003601f168201915b5050505050908060030180546108ce90611948565b80601f01602080910402602001604051908101604052809291908181526020018280546108fa90611948565b80156109455780601f1061091c57610100808354040283529160200191610945565b820191905f5260205f20905b81548152906001019060200180831161092857829003601f168201915b50505060048401546005850154600686015460078701546008909701549596929591945092506001600160a01b039182169181169060ff600160a01b8204811691600160a81b9004168b565b5f82116109d55760405162461bcd60e51b815260206004820152601260248201527105374617274696e67207072696365203e20360741b604482015260640161070a565b61012c811015610a175760405162461bcd60e51b815260206004820152600d60248201526c4d696e2035206d696e7574657360981b604482015260640161070a565b600380545f9182610a2783611930565b9190505590506040518061016001604052808281526020018781526020018681526020018581526020018481526020018481526020018342610a699190611994565b8152336020808301919091525f60408084018290526001606085018190526080909401829052858252818352902083518155908301519091820190610aae90826119f3565b5060408201516002820190610ac390826119f3565b5060608201516003820190610ad890826119f3565b506080820151600482015560a0820151600582015560c0820151600682015560e08201516007820180546001600160a01b0319166001600160a01b039283161790556101008301516008909201805461012085015161014090950151939092166001600160a81b031990921691909117600160a01b931515939093029290921760ff60a81b1916600160a81b911515919091021790557f5bf34ed94988e5dcdc7d1faaa54eb1d3b55f45d5f11457e235afb21a8ebbe73c818785610b9c8642611994565b604051610bac9493929190611aae565b60405180910390a1505050505050565b6001602052815f5260405f208181548110610bd5575f80fd5b5f9182526020909120600390910201805460018201546002909201546001600160a01b03909116935090915083565b606060015f8381526020019081526020015f20805480602002602001604051908101604052809291908181526020015f905b82821015610c8a575f848152602090819020604080516060810182526003860290920180546001600160a01b0316835260018082015484860152600290910154918301919091529083529092019101610c36565b505050509050919050565b610c9d611481565b5f828152602081815260409182902082516101608101909352805483526001810180549192840191610cce90611948565b80601f0160208091040260200160405190810160405280929190818152602001828054610cfa90611948565b8015610d455780601f10610d1c57610100808354040283529160200191610d45565b820191905f5260205f20905b815481529060010190602001808311610d2857829003601f168201915b50505050508152602001600282018054610d5e90611948565b80601f0160208091040260200160405190810160405280929190818152602001828054610d8a90611948565b8015610dd55780601f10610dac57610100808354040283529160200191610dd5565b820191905f5260205f20905b815481529060010190602001808311610db857829003601f168201915b50505050508152602001600382018054610dee90611948565b80601f0160208091040260200160405190810160405280929190818152602001828054610e1a90611948565b8015610e655780601f10610e3c57610100808354040283529160200191610e65565b820191905f5260205f20905b815481529060010190602001808311610e4857829003601f168201915b505050918352505060048201546020820152600582015460408201526006820154606082015260078201546001600160a01b03908116608083015260089092015491821660a082015260ff600160a01b83048116151560c0830152600160a81b909204909116151560e09091015292915050565b5f8181526020819052604090206008810154600160a01b900460ff16610f345760405162461bcd60e51b815260206004820152601060248201526f41756374696f6e20696e61637469766560801b604482015260640161070a565b80600601544210610f775760405162461bcd60e51b815260206004820152600d60248201526c105d58dd1a5bdb88195b991959609a1b604482015260640161070a565b60078101546001600160a01b03163303610fc75760405162461bcd60e51b815260206004820152601160248201527014d95b1b195c8818d85b9b9bdd08189a59607a1b604482015260640161070a565b806005015434116110085760405162461bcd60e51b815260206004820152600b60248201526a42696420746f6f206c6f7760a81b604482015260640161070a565b60088101546001600160a01b03161561105b5760058101545f83815260026020908152604080832060088601546001600160a01b0316845290915281208054909190611055908490611994565b90915550505b3460058201819055600882018054336001600160a01b031991821681179092555f8581526001602081815260408084208151606080820184528882528185018a81524283860190815284548089018655948952978690209251600390940290920180549098166001600160a01b03909316929092178755519386019390935592516002909401939093558151878152928301939093528101929092527f0e54eff26401bf69b81b26f60bd85ef47f5d85275c1d268d84f68d6897431c479101610789565b6005546001600160a01b031633146111665760405162461bcd60e51b815260206004820152600a60248201526927b7363c9037bbb732b960b11b604482015260640161070a565b600a8111156111a15760405162461bcd60e51b81526020600482015260076024820152664d61782031302560c81b604482015260640161070a565b600455565b5f8181526020819052604090206008810154600160a01b900460ff166112015760405162461bcd60e51b815260206004820152601060248201526f41756374696f6e20696e61637469766560801b604482015260640161070a565b6008810154600160a81b900460ff161561124d5760405162461bcd60e51b815260206004820152600d60248201526c105b1c9958591e48195b991959609a1b604482015260640161070a565b80600601544210156112945760405162461bcd60e51b815260206004820152601060248201526f139bdd08199a5b9a5cda1959081e595d60821b604482015260640161070a565b60078101546001600160a01b03163314806112b957506005546001600160a01b031633145b6112f65760405162461bcd60e51b815260206004820152600e60248201526d139bdd08185d5d1a1bdc9a5e995960921b604482015260640161070a565b60088101805461ffff60a01b198116600160a81b179091556001600160a01b031615611418575f606460045483600501546113319190611ad9565b61133b9190611af0565b90505f81836005015461134e9190611b0f565b60078401546040519192506001600160a01b03169082156108fc029083905f818181858888f19350505050158015611388573d5f5f3e3d5ffd5b506005546040516001600160a01b039091169083156108fc029084905f818181858888f193505050501580156113c0573d5f5f3e3d5ffd5b5060088301546005840154604080518781526001600160a01b0390931660208401528201527fd2aa34a4fdbbc6dff6a3e56f46e0f3ae2a31d7785ff3487aa5c95c642acea5019060600160405180910390a150505050565b604080518381525f60208201819052918101919091527fd2aa34a4fdbbc6dff6a3e56f46e0f3ae2a31d7785ff3487aa5c95c642acea50190606001610789565b5f8281526002602090815260408083206001600160a01b03851684529091529020545b92915050565b6040518061016001604052805f81526020016060815260200160608152602001606081526020015f81526020015f81526020015f81526020015f6001600160a01b031681526020015f6001600160a01b031681526020015f151581526020015f151581525090565b5f81518084528060208401602086015e5f602082860101526020601f19601f83011685010191505092915050565b805182525f602082015161016060208501526115376101608501826114e9565b90506040830151848203604086015261155082826114e9565b9150506060830151848203606086015261156a82826114e9565b9150506080830151608085015260a083015160a085015260c083015160c085015260e08301516115a560e08601826001600160a01b03169052565b506101008301516115c26101008601826001600160a01b03169052565b506101208301516115d861012086018215159052565b506101408301516115ee61014086018215159052565b509392505050565b5f602082016020835280845180835260408501915060408160051b8601019250602086015f5b8281101561164d57603f19878603018452611638858351611517565b9450602093840193919091019060010161161c565b50929695505050505050565b5f60208284031215611669575f5ffd5b5035919050565b8b815261016060208201525f61168a61016083018d6114e9565b828103604084015261169c818d6114e9565b905082810360608401526116b0818c6114e9565b608084018b905260a084018a905260c084018990526001600160a01b0388811660e0860152871661010085015285151561012085015284151561014085015291506116f89050565b9c9b505050505050505050505050565b634e487b7160e01b5f52604160045260245ffd5b5f82601f83011261172b575f5ffd5b813567ffffffffffffffff81111561174557611745611708565b604051601f8201601f19908116603f0116810167ffffffffffffffff8111828210171561177457611774611708565b60405281815283820160200185101561178b575f5ffd5b816020850160208301375f918101602001919091529392505050565b5f5f5f5f5f60a086880312156117bb575f5ffd5b853567ffffffffffffffff8111156117d1575f5ffd5b6117dd8882890161171c565b955050602086013567ffffffffffffffff8111156117f9575f5ffd5b6118058882890161171c565b945050604086013567ffffffffffffffff811115611821575f5ffd5b61182d8882890161171c565b9598949750949560608101359550608001359392505050565b5f5f60408385031215611857575f5ffd5b50508035926020909101359150565b602080825282518282018190525f918401906040840190835b818110156118bf57835180516001600160a01b0316845260208082015181860152604091820151918501919091529093019260609092019160010161187f565b509095945050505050565b602081525f6118dc6020830184611517565b9392505050565b5f5f604083850312156118f4575f5ffd5b8235915060208301356001600160a01b0381168114611911575f5ffd5b809150509250929050565b634e487b7160e01b5f52601160045260245ffd5b5f600182016119415761194161191c565b5060010190565b600181811c9082168061195c57607f821691505b60208210810361197a57634e487b7160e01b5f52602260045260245ffd5b50919050565b634e487b7160e01b5f52603260045260245ffd5b8082018082111561147b5761147b61191c565b601f8211156119ee57805f5260205f20601f840160051c810160208510156119cc5750805b601f840160051c820191505b818110156119eb575f81556001016119d8565b50505b505050565b815167ffffffffffffffff811115611a0d57611a0d611708565b611a2181611a1b8454611948565b846119a7565b6020601f821160018114611a53575f8315611a3c5750848201515b5f19600385901b1c1916600184901b1784556119eb565b5f84815260208120601f198516915b82811015611a825787850151825560209485019460019092019101611a62565b5084821015611a9f57868401515f19600387901b60f8161c191681555b50505050600190811b01905550565b848152608060208201525f611ac660808301866114e9565b6040830194909452506060015292915050565b808202811582820484141761147b5761147b61191c565b5f82611b0a57634e487b7160e01b5f52601260045260245ffd5b500490565b8181038181111561147b5761147b61191c56fea2646970667358221220d3c53c7d976048fea94a44c9a889b734f63013292f1b78afaad1ef4d282d3edd64736f6c634300081c0033",
  "linkReferences": {},
  "deployedLinkReferences": {},
  "immutableReferences": {},
  "inputSourceName": "project/contracts/Auction.sol",
  "buildInfoId": "solc-0_8_28-e430c3edb5050aa9a2caa9a5906c9903955c9a90"
}