{
  "_format": "hh3-artifact-1",
  "contractName": "Auction",
  "sourceName": "contracts/Auction.sol",
  "abi": [
    {
      "inputs": [
        {
          "internalType": "string",
          "name": "_itemName",
          "type": "string"
        },
        {
          "internalType": "uint256",
          "name": "_biddingTime",
          "type": "uint256"
        }
      ],
      "stateMutability": "nonpayable",
      "type": "constructor"
    },
    {
      "anonymous": false,
      "inputs": [
        {
          "indexed": false,
          "internalType": "address",
          "name": "winner",
          "type": "address"
        },
        {
          "indexed": false,
          "internalType": "uint256",
          "name": "amount",
          "type": "uint256"
        }
      ],
      "name": "AuctionEnded",
      "type": "event"
    },
    {
      "anonymous": false,
      "inputs": [
        {
          "indexed": false,
          "internalType": "address",
          "name": "bidder",
          "type": "address"
        },
        {
          "indexed": false,
          "internalType": "uint256",
          "name": "amount",
          "type": "uint256"
        }
      ],
      "name": "HighestBidIncreased",
      "type": "event"
    },
    {
      "inputs": [],
      "name": "bid",
      "outputs": [],
      "stateMutability": "payable",
      "type": "function"
    },
    {
      "inputs": [],
      "name": "endAuction",
      "outputs": [],
      "stateMutability": "nonpayable",
      "type": "function"
    },
    {
      "inputs": [],
      "name": "endTime",
      "outputs": [
        {
          "internalType": "uint256",
          "name": "",
          "type": "uint256"
        }
      ],
      "stateMutability": "view",
      "type": "function"
    },
    {
      "inputs": [],
      "name": "ended",
      "outputs": [
        {
          "internalType": "bool",
          "name": "",
          "type": "bool"
        }
      ],
      "stateMutability": "view",
      "type": "function"
    },
    {
      "inputs": [],
      "name": "highestBid",
      "outputs": [
        {
          "internalType": "uint256",
          "name": "",
          "type": "uint256"
        }
      ],
      "stateMutability": "view",
      "type": "function"
    },
    {
      "inputs": [],
      "name": "highestBidder",
      "outputs": [
        {
          "internalType": "address",
          "name": "",
          "type": "address"
        }
      ],
      "stateMutability": "view",
      "type": "function"
    },
    {
      "inputs": [],
      "name": "itemName",
      "outputs": [
        {
          "internalType": "string",
          "name": "",
          "type": "string"
        }
      ],
      "stateMutability": "view",
      "type": "function"
    },
    {
      "inputs": [],
      "name": "owner",
      "outputs": [
        {
          "internalType": "address",
          "name": "",
          "type": "address"
        }
      ],
      "stateMutability": "view",
      "type": "function"
    },
    {
      "inputs": [
        {
          "internalType": "address",
          "name": "",
          "type": "address"
        }
      ],
      "name": "pendingReturns",
      "outputs": [
        {
          "internalType": "uint256",
          "name": "",
          "type": "uint256"
        }
      ],
      "stateMutability": "view",
      "type": "function"
    },
    {
      "inputs": [],
      "name": "withdraw",
      "outputs": [
        {
          "internalType": "bool",
          "name": "",
          "type": "bool"
        }
      ],
      "stateMutability": "nonpayable",
      "type": "function"
    }
  ],
  "bytecode": "0x608060405234801561000f575f5ffd5b5060405161091e38038061091e83398101604081905261002e91610075565b5f80546001600160a01b03191633179055600161004b83826101ad565b506100568142610267565b6002555061028c9050565b634e487b7160e01b5f52604160045260245ffd5b5f5f60408385031215610086575f5ffd5b82516001600160401b0381111561009b575f5ffd5b8301601f810185136100ab575f5ffd5b80516001600160401b038111156100c4576100c4610061565b604051601f8201601f19908116603f011681016001600160401b03811182821017156100f2576100f2610061565b604052818152828201602001871015610109575f5ffd5b8160208401602083015e5f60209282018301529401519395939450505050565b600181811c9082168061013d57607f821691505b60208210810361015b57634e487b7160e01b5f52602260045260245ffd5b50919050565b601f8211156101a857805f5260205f20601f840160051c810160208510156101865750805b601f840160051c820191505b818110156101a5575f8155600101610192565b50505b505050565b81516001600160401b038111156101c6576101c6610061565b6101da816101d48454610129565b84610161565b6020601f82116001811461020c575f83156101f55750848201515b5f19600385901b1c1916600184901b1784556101a5565b5f84815260208120601f198516915b8281101561023b578785015182556020948501946001909201910161021b565b508482101561025857868401515f19600387901b60f8161c191681555b50505050600190811b01905550565b8082018082111561028657634e487b7160e01b5f52601160045260245ffd5b92915050565b610685806102995f395ff3fe60806040526004361061008f575f3560e01c806340401fea1161005757806340401fea1461012d5780638da5cb5b1461014e57806391f9015714610184578063d57bde79146101a3578063fe67a54b146101b8575f5ffd5b806312fa6feb146100935780631998aeef146100c157806326b387bb146100cb5780633197cbb6146101045780633ccfd60b14610119575b5f5ffd5b34801561009e575f5ffd5b506005546100ac9060ff1681565b60405190151581526020015b60405180910390f35b6100c96101cc565b005b3480156100d6575f5ffd5b506100f66100e5366004610590565b60066020525f908152604090205481565b6040519081526020016100b8565b34801561010f575f5ffd5b506100f660025481565b348015610124575f5ffd5b506100ac6102fc565b348015610138575f5ffd5b5061014161038f565b6040516100b891906105bd565b348015610159575f5ffd5b505f5461016c906001600160a01b031681565b6040516001600160a01b0390911681526020016100b8565b34801561018f575f5ffd5b5060035461016c906001600160a01b031681565b3480156101ae575f5ffd5b506100f660045481565b3480156101c3575f5ffd5b506100c961041b565b600254421061021a5760405162461bcd60e51b8152602060048201526015602482015274105d58dd1a5bdb88185b1c9958591e48195b991959605a1b60448201526064015b60405180910390fd5b600454341161026b5760405162461bcd60e51b815260206004820152601f60248201527f426964206d75737420626520686967686572207468616e2063757272656e74006044820152606401610211565b600454156102a5576004546003546001600160a01b03165f908152600660205260408120805490919061029f9084906105f2565b90915550505b600380546001600160a01b031916339081179091553460048190556040805192835260208301919091527ff4757a49b326036464bec6fe419a4ae38c8a02ce3e68bf0809674f6aab8ad300910160405180910390a1565b335f908152600660205260408120548061034e5760405162461bcd60e51b81526020600482015260136024820152724e6f7468696e6720746f20776974686472617760681b6044820152606401610211565b335f818152600660205260408082208290555183156108fc0291849190818181858888f19350505050158015610386573d5f5f3e3d5ffd5b50600191505090565b6001805461039c90610617565b80601f01602080910402602001604051908101604052809291908181526020018280546103c890610617565b80156104135780601f106103ea57610100808354040283529160200191610413565b820191905f5260205f20905b8154815290600101906020018083116103f657829003601f168201915b505050505081565b6002544210156104655760405162461bcd60e51b8152602060048201526015602482015274105d58dd1a5bdb881b9bdd081e595d08195b991959605a1b6044820152606401610211565b60055460ff16156104b05760405162461bcd60e51b8152602060048201526015602482015274105d58dd1a5bdb88185b1c9958591e48195b991959605a1b6044820152606401610211565b5f546001600160a01b031633146104fe5760405162461bcd60e51b815260206004820152601260248201527113db9b1e481bdddb995c8818d85b88195b9960721b6044820152606401610211565b6005805460ff19166001179055600354600454604080516001600160a01b03909316835260208301919091527fdaec4582d5d9595688c8c98545fdd1c696d41c6aeaeb636737e84ed2f5c00eda910160405180910390a15f80546004546040516001600160a01b039092169281156108fc029290818181858888f1935050505015801561058d573d5f5f3e3d5ffd5b50565b5f602082840312156105a0575f5ffd5b81356001600160a01b03811681146105b6575f5ffd5b9392505050565b602081525f82518060208401528060208501604085015e5f604082850101526040601f19601f83011684010191505092915050565b8082018082111561061157634e487b7160e01b5f52601160045260245ffd5b92915050565b600181811c9082168061062b57607f821691505b60208210810361064957634e487b7160e01b5f52602260045260245ffd5b5091905056fea2646970667358221220478e338cad11a1cb84fe9bfaa97720741aed23b2271070f9543d5fe81d0da00164736f6c634300081c0033",
  "linkReferences": {},
  "deployedLinkReferences": {},
  "immutableReferences": {},
  "inputSourceName": "project/contracts/Auction.sol",
  "buildInfoId": "solc-0_8_28-918e2df8958d8397f336257679ddeb79089a0701"
}