{
  "_format": "hh3-artifact-1",
  "contractName": "Auction",
  "sourceName": "contracts/Auction.sol",
  "abi": [
    {
      "inputs": [],
      "stateMutability": "nonpayable",
      "type": "constructor"
    },
    {
      "anonymous": false,
      "inputs": [
        {
          "indexed": true,
          "internalType": "uint256",
          "name": "auctionId",
          "type": "uint256"
        },
        {
          "indexed": false,
          "internalType": "string",
          "name": "name",
          "type": "string"
        },
        {
          "indexed": false,
          "internalType": "uint256",
          "name": "startingPrice",
          "type": "uint256"
        },
        {
          "indexed": false,
          "internalType": "uint256",
          "name": "endTime",
          "type": "uint256"
        }
      ],
      "name": "AuctionCreated",
      "type": "event"
    },
    {
      "anonymous": false,
      "inputs": [
        {
          "indexed": true,
          "internalType": "uint256",
          "name": "auctionId",
          "type": "uint256"
        },
        {
          "indexed": false,
          "internalType": "address",
          "name": "winner",
          "type": "address"
        },
        {
          "indexed": false,
          "internalType": "uint256",
          "name": "finalPrice",
          "type": "uint256"
        }
      ],
      "name": "AuctionEnded",
      "type": "event"
    },
    {
      "anonymous": false,
      "inputs": [
        {
          "indexed": true,
          "internalType": "uint256",
          "name": "auctionId",
          "type": "uint256"
        },
        {
          "indexed": true,
          "internalType": "address",
          "name": "bidder",
          "type": "address"
        },
        {
          "indexed": false,
          "internalType": "uint256",
          "name": "amount",
          "type": "uint256"
        }
      ],
      "name": "BidPlaced",
      "type": "event"
    },
    {
      "anonymous": false,
      "inputs": [
        {
          "indexed": true,
          "internalType": "address",
          "name": "user",
          "type": "address"
        },
        {
          "indexed": false,
          "internalType": "uint256",
          "name": "amount",
          "type": "uint256"
        }
      ],
      "name": "FundsWithdrawn",
      "type": "event"
    },
    {
      "inputs": [
        {
          "internalType": "uint256",
          "name": "",
          "type": "uint256"
        },
        {
          "internalType": "uint256",
          "name": "",
          "type": "uint256"
        }
      ],
      "name": "auctionBids",
      "outputs": [
        {
          "internalType": "address",
          "name": "bidder",
          "type": "address"
        },
        {
          "internalType": "uint256",
          "name": "amount",
          "type": "uint256"
        },
        {
          "internalType": "uint256",
          "name": "timestamp",
          "type": "uint256"
        }
      ],
      "stateMutability": "view",
      "type": "function"
    },
    {
      "inputs": [],
      "name": "auctionCounter",
      "outputs": [
        {
          "internalType": "uint256",
          "name": "",
          "type": "uint256"
        }
      ],
      "stateMutability": "view",
      "type": "function"
    },
    {
      "inputs": [
        {
          "internalType": "uint256",
          "name": "",
          "type": "uint256"
        }
      ],
      "name": "auctions",
      "outputs": [
        {
          "internalType": "uint256",
          "name": "id",
          "type": "uint256"
        },
        {
          "internalType": "string",
          "name": "name",
          "type": "string"
        },
        {
          "internalType": "string",
          "name": "description",
          "type": "string"
        },
        {
          "internalType": "string",
          "name": "imageUrl",
          "type": "string"
        },
        {
          "internalType": "uint256",
          "name": "startingPrice",
          "type": "uint256"
        },
        {
          "internalType": "uint256",
          "name": "currentPrice",
          "type": "uint256"
        },
        {
          "internalType": "uint256",
          "name": "endTime",
          "type": "uint256"
        },
        {
          "internalType": "address payable",
          "name": "seller",
          "type": "address"
        },
        {
          "internalType": "address payable",
          "name": "highestBidder",
          "type": "address"
        },
        {
          "internalType": "bool",
          "name": "isActive",
          "type": "bool"
        },
        {
          "internalType": "bool",
          "name": "isCompleted",
          "type": "bool"
        }
      ],
      "stateMutability": "view",
      "type": "function"
    },
    {
      "inputs": [
        {
          "internalType": "string",
          "name": "_name",
          "type": "string"
        },
        {
          "internalType": "string",
          "name": "_description",
          "type": "string"
        },
        {
          "internalType": "string",
          "name": "_imageUrl",
          "type": "string"
        },
        {
          "internalType": "uint256",
          "name": "_startingPrice",
          "type": "uint256"
        },
        {
          "internalType": "uint256",
          "name": "_duration",
          "type": "uint256"
        }
      ],
      "name": "createAuction",
      "outputs": [],
      "stateMutability": "nonpayable",
      "type": "function"
    },
    {
      "inputs": [
        {
          "internalType": "uint256",
          "name": "_auctionId",
          "type": "uint256"
        }
      ],
      "name": "endAuction",
      "outputs": [],
      "stateMutability": "nonpayable",
      "type": "function"
    },
    {
      "inputs": [],
      "name": "getAllActiveAuctions",
      "outputs": [
        {
          "components": [
            {
              "internalType": "uint256",
              "name": "id",
              "type": "uint256"
            },
            {
              "internalType": "string",
              "name": "name",
              "type": "string"
            },
            {
              "internalType": "string",
              "name": "description",
              "type": "string"
            },
            {
              "internalType": "string",
              "name": "imageUrl",
              "type": "string"
            },
            {
              "internalType": "uint256",
              "name": "startingPrice",
              "type": "uint256"
            },
            {
              "internalType": "uint256",
              "name": "currentPrice",
              "type": "uint256"
            },
            {
              "internalType": "uint256",
              "name": "endTime",
              "type": "uint256"
            },
            {
              "internalType": "address payable",
              "name": "seller",
              "type": "address"
            },
            {
              "internalType": "address payable",
              "name": "highestBidder",
              "type": "address"
            },
            {
              "internalType": "bool",
              "name": "isActive",
              "type": "bool"
            },
            {
              "internalType": "bool",
              "name": "isCompleted",
              "type": "bool"
            }
          ],
          "internalType": "struct Auction.AuctionItem[]",
          "name": "",
          "type": "tuple[]"
        }
      ],
      "stateMutability": "view",
      "type": "function"
    },
    {
      "inputs": [
        {
          "internalType": "uint256",
          "name": "_auctionId",
          "type": "uint256"
        }
      ],
      "name": "getAuction",
      "outputs": [
        {
          "components": [
            {
              "internalType": "uint256",
              "name": "id",
              "type": "uint256"
            },
            {
              "internalType": "string",
              "name": "name",
              "type": "string"
            },
            {
              "internalType": "string",
              "name": "description",
              "type": "string"
            },
            {
              "internalType": "string",
              "name": "imageUrl",
              "type": "string"
            },
            {
              "internalType": "uint256",
              "name": "startingPrice",
              "type": "uint256"
            },
            {
              "internalType": "uint256",
              "name": "currentPrice",
              "type": "uint256"
            },
            {
              "internalType": "uint256",
              "name": "endTime",
              "type": "uint256"
            },
            {
              "internalType": "address payable",
              "name": "seller",
              "type": "address"
            },
            {
              "internalType": "address payable",
              "name": "highestBidder",
              "type": "address"
            },
            {
              "internalType": "bool",
              "name": "isActive",
              "type": "bool"
            },
            {
              "internalType": "bool",
              "name": "isCompleted",
              "type": "bool"
            }
          ],
          "internalType": "struct Auction.AuctionItem",
          "name": "",
          "type": "tuple"
        }
      ],
      "stateMutability": "view",
      "type": "function"
    },
    {
      "inputs": [
        {
          "internalType": "uint256",
          "name": "_auctionId",
          "type": "uint256"
        }
      ],
      "name": "getAuctionBids",
      "outputs": [
        {
          "components": [
            {
              "internalType": "address",
              "name": "bidder",
              "type": "address"
            },
            {
              "internalType": "uint256",
              "name": "amount",
              "type": "uint256"
            },
            {
              "internalType": "uint256",
              "name": "timestamp",
              "type": "uint256"
            }
          ],
          "internalType": "struct Auction.Bid[]",
          "name": "",
          "type": "tuple[]"
        }
      ],
      "stateMutability": "view",
      "type": "function"
    },
    {
      "inputs": [
        {
          "internalType": "uint256",
          "name": "_auctionId",
          "type": "uint256"
        },
        {
          "internalType": "address",
          "name": "_user",
          "type": "address"
        }
      ],
      "name": "getPendingReturn",
      "outputs": [
        {
          "internalType": "uint256",
          "name": "",
          "type": "uint256"
        }
      ],
      "stateMutability": "view",
      "type": "function"
    },
    {
      "inputs": [],
      "name": "owner",
      "outputs": [
        {
          "internalType": "address payable",
          "name": "",
          "type": "address"
        }
      ],
      "stateMutability": "view",
      "type": "function"
    },
    {
      "inputs": [
        {
          "internalType": "uint256",
          "name": "",
          "type": "uint256"
        },
        {
          "internalType": "address",
          "name": "",
          "type": "address"
        }
      ],
      "name": "pendingReturns",
      "outputs": [
        {
          "internalType": "uint256",
          "name": "",
          "type": "uint256"
        }
      ],
      "stateMutability": "view",
      "type": "function"
    },
    {
      "inputs": [
        {
          "internalType": "uint256",
          "name": "_auctionId",
          "type": "uint256"
        }
      ],
      "name": "placeBid",
      "outputs": [],
      "stateMutability": "payable",
      "type": "function"
    },
    {
      "inputs": [],
      "name": "platformFeePercent",
      "outputs": [
        {
          "internalType": "uint256",
          "name": "",
          "type": "uint256"
        }
      ],
      "stateMutability": "view",
      "type": "function"
    },
    {
      "inputs": [
        {
          "internalType": "uint256",
          "name": "_newFeePercent",
          "type": "uint256"
        }
      ],
      "name": "updatePlatformFee",
      "outputs": [],
      "stateMutability": "nonpayable",
      "type": "function"
    },
    {
      "inputs": [
        {
          "internalType": "uint256",
          "name": "_auctionId",
          "type": "uint256"
        }
      ],
      "name": "withdraw",
      "outputs": [],
      "stateMutability": "nonpayable",
      "type": "function"
    },
    {
      "stateMutability": "payable",
      "type": "receive"
    }
  ],
  "bytecode": "0x608060405260026004553480156013575f5ffd5b50600580546001600160a01b03191633179055611b2e806100335f395ff3fe6080604052600436106100e7575f3560e01c80638c639a8511610087578063a7e7664411610057578063a7e76644146102d1578063aa0b5988146102e6578063b9a2de3a14610305578063d02ef6f914610324575f5ffd5b80638c639a851461022e5780638da5cb5b146102515780638ddac1ef146102885780639979ef45146102be575f5ffd5b806358574dca116100c257806358574dca146101735780635f93de491461019257806370b4768e146101d657806378bd793514610202575f5ffd5b80632dee466d146100f25780632e1a7d4d1461011c578063571a26a01461013d575f5ffd5b366100ee57005b5f5ffd5b3480156100fd575f5ffd5b50610106610343565b60405161011391906115d3565b60405180910390f35b348015610127575f5ffd5b5061013b610136366004611636565b6106b7565b005b348015610148575f5ffd5b5061015c610157366004611636565b610797565b6040516101139b9a9998979695949392919061164d565b34801561017e575f5ffd5b5061013b61018d366004611784565b610993565b34801561019d575f5ffd5b506101b16101ac366004611823565b610bf2565b604080516001600160a01b039094168452602084019290925290820152606001610113565b3480156101e1575f5ffd5b506101f56101f0366004611636565b610c3a565b6040516101139190611843565b34801561020d575f5ffd5b5061022161021c366004611636565b610ccb565b60405161011391906118a7565b348015610239575f5ffd5b5061024360045481565b604051908152602001610113565b34801561025c575f5ffd5b50600554610270906001600160a01b031681565b6040516001600160a01b039091168152602001610113565b348015610293575f5ffd5b506102436102a23660046118c0565b600260209081525f928352604080842090915290825290205481565b61013b6102cc366004611636565b610f0f565b3480156102dc575f5ffd5b5061024360035481565b3480156102f1575f5ffd5b5061013b610300366004611636565b611181565b348015610310575f5ffd5b5061013b61031f366004611636565b611229565b34801561032f575f5ffd5b5061024361033e3660046118c0565b611435565b60605f805b6003548110156103a3575f81815260208190526040902060080154600160a01b900460ff16801561038857505f8181526020819052604090206006015442105b1561039b57816103978161190d565b9250505b600101610348565b505f8167ffffffffffffffff8111156103be576103be6116e5565b6040519080825280602002602001820160405280156103f757816020015b6103e461145e565b8152602001906001900390816103dc5790505b5090505f805b6003548110156106ae575f81815260208190526040902060080154600160a01b900460ff16801561043d57505f8181526020819052604090206006015442105b156106a6575f81815260208181526040918290208251610160810190935280548352600181018054919284019161047390611925565b80601f016020809104026020016040519081016040528092919081815260200182805461049f90611925565b80156104ea5780601f106104c1576101008083540402835291602001916104ea565b820191905f5260205f20905b8154815290600101906020018083116104cd57829003601f168201915b5050505050815260200160028201805461050390611925565b80601f016020809104026020016040519081016040528092919081815260200182805461052f90611925565b801561057a5780601f106105515761010080835404028352916020019161057a565b820191905f5260205f20905b81548152906001019060200180831161055d57829003601f168201915b5050505050815260200160038201805461059390611925565b80601f01602080910402602001604051908101604052809291908181526020018280546105bf90611925565b801561060a5780601f106105e15761010080835404028352916020019161060a565b820191905f5260205f20905b8154815290600101906020018083116105ed57829003601f168201915b505050918352505060048201546020820152600582015460408201526006820154606082015260078201546001600160a01b03908116608083015260089092015491821660a082015260ff600160a01b83048116151560c0830152600160a81b909204909116151560e090910152835184908490811061068c5761068c61195d565b602002602001018190525081806106a29061190d565b9250505b6001016103fd565b50909392505050565b5f818152600260209081526040808320338452909152902054806107195760405162461bcd60e51b81526020600482015260146024820152734e6f2066756e647320746f20776974686472617760601b60448201526064015b60405180910390fd5b5f82815260026020908152604080832033808552925280832083905551909183156108fc02918491818181858888f1935050505015801561075c573d5f5f3e3d5ffd5b5060405181815233907feaff4b37086828766ad3268786972c0cd24259d4c87a80f9d3963a3c3d999b0d906020015b60405180910390a25050565b5f60208190529081526040902080546001820180549192916107b890611925565b80601f01602080910402602001604051908101604052809291908181526020018280546107e490611925565b801561082f5780601f106108065761010080835404028352916020019161082f565b820191905f5260205f20905b81548152906001019060200180831161081257829003601f168201915b50505050509080600201805461084490611925565b80601f016020809104026020016040519081016040528092919081815260200182805461087090611925565b80156108bb5780601f10610892576101008083540402835291602001916108bb565b820191905f5260205f20905b81548152906001019060200180831161089e57829003601f168201915b5050505050908060030180546108d090611925565b80601f01602080910402602001604051908101604052809291908181526020018280546108fc90611925565b80156109475780601f1061091e57610100808354040283529160200191610947565b820191905f5260205f20905b81548152906001019060200180831161092a57829003601f168201915b50505060048401546005850154600686015460078701546008909701549596929591945092506001600160a01b039182169181169060ff600160a01b8204811691600160a81b9004168b565b5f82116109f05760405162461bcd60e51b815260206004820152602560248201527f5374617274696e67207072696365206d75737420626520677265617465722074604482015264068616e20360dc1b6064820152608401610710565b61012c811015610a4e5760405162461bcd60e51b815260206004820152602360248201527f4475726174696f6e206d757374206265206174206c656173742035206d696e7560448201526274657360e81b6064820152608401610710565b600380545f9182610a5e8361190d565b9190505590506040518061016001604052808281526020018781526020018681526020018581526020018481526020018481526020018342610aa09190611971565b8152336020808301919091525f60408084018290526001606085018190526080909401829052858252818352902083518155908301519091820190610ae590826119d0565b5060408201516002820190610afa90826119d0565b5060608201516003820190610b0f90826119d0565b506080820151600482015560a0820151600582015560c0820151600682015560e08201516007820180546001600160a01b0319166001600160a01b039283161790556101008301516008909201805461012085015161014090950151939092166001600160a81b031990921691909117600160a01b931515939093029290921760ff60a81b1916600160a81b91151591909102179055807f5bf34ed94988e5dcdc7d1faaa54eb1d3b55f45d5f11457e235afb21a8ebbe73c8785610bd38642611971565b604051610be293929190611a8b565b60405180910390a2505050505050565b6001602052815f5260405f208181548110610c0b575f80fd5b5f9182526020909120600390910201805460018201546002909201546001600160a01b03909116935090915083565b606060015f8381526020019081526020015f20805480602002602001604051908101604052809291908181526020015f905b82821015610cc0575f848152602090819020604080516060810182526003860290920180546001600160a01b0316835260018082015484860152600290910154918301919091529083529092019101610c6c565b505050509050919050565b610cd361145e565b5f828152602081815260409182902082516101608101909352805483526001810180549192840191610d0490611925565b80601f0160208091040260200160405190810160405280929190818152602001828054610d3090611925565b8015610d7b5780601f10610d5257610100808354040283529160200191610d7b565b820191905f5260205f20905b815481529060010190602001808311610d5e57829003601f168201915b50505050508152602001600282018054610d9490611925565b80601f0160208091040260200160405190810160405280929190818152602001828054610dc090611925565b8015610e0b5780601f10610de257610100808354040283529160200191610e0b565b820191905f5260205f20905b815481529060010190602001808311610dee57829003601f168201915b50505050508152602001600382018054610e2490611925565b80601f0160208091040260200160405190810160405280929190818152602001828054610e5090611925565b8015610e9b5780601f10610e7257610100808354040283529160200191610e9b565b820191905f5260205f20905b815481529060010190602001808311610e7e57829003601f168201915b505050918352505060048201546020820152600582015460408201526006820154606082015260078201546001600160a01b03908116608083015260089092015491821660a082015260ff600160a01b83048116151560c0830152600160a81b909204909116151560e09091015292915050565b5f8181526020819052604090206008810154600160a01b900460ff16610f6f5760405162461bcd60e51b815260206004820152601560248201527441756374696f6e206973206e6f742061637469766560581b6044820152606401610710565b80600601544210610fb65760405162461bcd60e51b8152602060048201526011602482015270105d58dd1a5bdb881a185cc8195b991959607a1b6044820152606401610710565b60078101546001600160a01b031633036110065760405162461bcd60e51b815260206004820152601160248201527014d95b1b195c8818d85b9b9bdd08189a59607a1b6044820152606401610710565b806005015434116110675760405162461bcd60e51b815260206004820152602560248201527f426964206d75737420626520686967686572207468616e2063757272656e7420604482015264707269636560d81b6064820152608401610710565b60088101546001600160a01b0316156110ba5760058101545f83815260026020908152604080832060088601546001600160a01b03168452909152812080549091906110b4908490611971565b90915550505b34600582018190556008820180546001600160a01b0319908116339081179092555f8581526001602081815260408084208151606081018352878152808401898152428285019081528354808801855593885294909620905160039092020180546001600160a01b0392909216919096161785559251918401919091555160029092019190915551909184917f0e54eff26401bf69b81b26f60bd85ef47f5d85275c1d268d84f68d6897431c47916111759190815260200190565b60405180910390a35050565b6005546001600160a01b031633146111db5760405162461bcd60e51b815260206004820152601860248201527f4f6e6c79206f776e65722063616e2063616c6c207468697300000000000000006044820152606401610710565b600a8111156112245760405162461bcd60e51b81526020600482015260156024820152744665652063616e6e6f74206578636565642031302560581b6044820152606401610710565b600455565b5f8181526020819052604090206008810154600160a01b900460ff166112895760405162461bcd60e51b815260206004820152601560248201527441756374696f6e206973206e6f742061637469766560581b6044820152606401610710565b80600601544210156112dd5760405162461bcd60e51b815260206004820152601960248201527f41756374696f6e20686173206e6f7420656e64656420796574000000000000006044820152606401610710565b60088101805461ffff60a01b198116600160a81b179091556001600160a01b0316156113fe575f606460045483600501546113189190611aaf565b6113229190611ac6565b90505f8183600501546113359190611ae5565b60078401546040519192506001600160a01b03169082156108fc029083905f818181858888f1935050505015801561136f573d5f5f3e3d5ffd5b506005546040516001600160a01b039091169083156108fc029084905f818181858888f193505050501580156113a7573d5f5f3e3d5ffd5b5060088301546005840154604080516001600160a01b039093168352602083019190915285917fd2aa34a4fdbbc6dff6a3e56f46e0f3ae2a31d7785ff3487aa5c95c642acea501910160405180910390a250505050565b604080515f808252602082015283917fd2aa34a4fdbbc6dff6a3e56f46e0f3ae2a31d7785ff3487aa5c95c642acea501910161078b565b5f8281526002602090815260408083206001600160a01b03851684529091529020545b92915050565b6040518061016001604052805f81526020016060815260200160608152602001606081526020015f81526020015f81526020015f81526020015f6001600160a01b031681526020015f6001600160a01b031681526020015f151581526020015f151581525090565b5f81518084528060208401602086015e5f602082860101526020601f19601f83011685010191505092915050565b805182525f602082015161016060208501526115146101608501826114c6565b90506040830151848203604086015261152d82826114c6565b9150506060830151848203606086015261154782826114c6565b9150506080830151608085015260a083015160a085015260c083015160c085015260e083015161158260e08601826001600160a01b03169052565b5061010083015161159f6101008601826001600160a01b03169052565b506101208301516115b561012086018215159052565b506101408301516115cb61014086018215159052565b509392505050565b5f602082016020835280845180835260408501915060408160051b8601019250602086015f5b8281101561162a57603f198786030184526116158583516114f4565b945060209384019391909101906001016115f9565b50929695505050505050565b5f60208284031215611646575f5ffd5b5035919050565b8b815261016060208201525f61166761016083018d6114c6565b8281036040840152611679818d6114c6565b9050828103606084015261168d818c6114c6565b608084018b905260a084018a905260c084018990526001600160a01b0388811660e0860152871661010085015285151561012085015284151561014085015291506116d59050565b9c9b505050505050505050505050565b634e487b7160e01b5f52604160045260245ffd5b5f82601f830112611708575f5ffd5b813567ffffffffffffffff811115611722576117226116e5565b604051601f8201601f19908116603f0116810167ffffffffffffffff81118282101715611751576117516116e5565b604052818152838201602001851015611768575f5ffd5b816020850160208301375f918101602001919091529392505050565b5f5f5f5f5f60a08688031215611798575f5ffd5b853567ffffffffffffffff8111156117ae575f5ffd5b6117ba888289016116f9565b955050602086013567ffffffffffffffff8111156117d6575f5ffd5b6117e2888289016116f9565b945050604086013567ffffffffffffffff8111156117fe575f5ffd5b61180a888289016116f9565b9598949750949560608101359550608001359392505050565b5f5f60408385031215611834575f5ffd5b50508035926020909101359150565b602080825282518282018190525f918401906040840190835b8181101561189c57835180516001600160a01b0316845260208082015181860152604091820151918501919091529093019260609092019160010161185c565b509095945050505050565b602081525f6118b960208301846114f4565b9392505050565b5f5f604083850312156118d1575f5ffd5b8235915060208301356001600160a01b03811681146118ee575f5ffd5b809150509250929050565b634e487b7160e01b5f52601160045260245ffd5b5f6001820161191e5761191e6118f9565b5060010190565b600181811c9082168061193957607f821691505b60208210810361195757634e487b7160e01b5f52602260045260245ffd5b50919050565b634e487b7160e01b5f52603260045260245ffd5b80820180821115611458576114586118f9565b601f8211156119cb57805f5260205f20601f840160051c810160208510156119a95750805b601f840160051c820191505b818110156119c8575f81556001016119b5565b50505b505050565b815167ffffffffffffffff8111156119ea576119ea6116e5565b6119fe816119f88454611925565b84611984565b6020601f821160018114611a30575f8315611a195750848201515b5f19600385901b1c1916600184901b1784556119c8565b5f84815260208120601f198516915b82811015611a5f5787850151825560209485019460019092019101611a3f565b5084821015611a7c57868401515f19600387901b60f8161c191681555b50505050600190811b01905550565b606081525f611a9d60608301866114c6565b60208301949094525060400152919050565b8082028115828204841417611458576114586118f9565b5f82611ae057634e487b7160e01b5f52601260045260245ffd5b500490565b81810381811115611458576114586118f956fea2646970667358221220d9d2f5ae6d979ea517b5ba39553a4a918fae6e1a4248cff834626673d82d36a864736f6c634300081c0033",
  "linkReferences": {},
  "deployedLinkReferences": {},
  "immutableReferences": {},
  "inputSourceName": "project/contracts/Auction.sol",
  "buildInfoId": "solc-0_8_28-c18fedcb827351bc2bee4e4d7fa133b09f848772"
}